:020000040800F2
:10000000D83D002001010008090100080B0100088B
:100010000D0100080F010008110100080000000098
:1000200000000000000000000000000013010008B4
:100030001501000800000000170100081901000860
:100040001B0100081B0100081B0100081B01000820
:100050001B0100081B010008950E00081B01000889
:100060001B0100081B0100081B0100081B01000800
:100070001B0100081B0100081B0100081B010008F0
:100080001B0100081B0100081B0100081B010008E0
:100090001B0100081B0100081B010008CD0E000811
:1000A0001B0100081B0100081B0100081B010008C0
:1000B0001B0100081B010008292600081B0100087D
:1000C0001B0100081B0100081B0100081B010008A0
:1000D0001B0100081B0100081B0100081B01000890
:1000E0001B0100081B0100081B010008DFF80CD0F1
:1000F00000F032FD00480047996E0008D83D00200E
:100100000648804706480047FEE7FEE7FEE7FEE7B1
:10011000FEE7FEE7FEE7FEE7FEE7FEE791250008C3
:10012000ED0000082DE9F05F0546002092469B4651
:1001300088460646814640241BE0284641464746FD
:10014000224600F01BFB53465A46C01A914110D379
:1001500011461846224600F002FB2D1A67EB0108F3
:100160004F4622460120002100F0F9FA17EB000962
:100170004E41201EA4F10104DFDC484631462A46E8
:100180004346BDE8F09F2DE9F0410024061B2546BB
:1001900071F1000605DA01240027D0EB070067EBB8
:1001A0000101161E73F1000605DA0027D2EB0702E3
:1001B000012567EB0303FFF7B5FF86460E4617469A
:1001C0009C46AC4204D00025D0EB050E65EB010641
:1001D00024B10020D2EB000760EB030C70463146DF
:1001E0003A466346BDE8F08140EA01039B0703D02D
:1001F00009E008C9121F08C0042AFAD203E011F866
:10020000013B00F8013B521EF9D27047D2B201E027
:1002100000F8012B491EFBD270470022F6E710B50B
:1002200013460A4604461946FFF7F0FF204610BD64
:1002300030B504460020034600E05B1C934203D225
:10024000E05CCD5C401BF8D030BDF0B480EA010228
:10025000D40F4200B2EB410F02D2024608461146CB
:100260004A0042D0C30DDDB2C1F3C752AD1A202DF2
:1002700035DAC1F3160141F4000204B15242C5F16E
:10028000200602FA06F12A411044B3EBD05F23D0D6
:10029000C4B1012DA0EBC35009DCF0BC4FF000420B
:1002A00002EAC352DBB200F5000000F080BA400061
:1002B00000F1807000EBC350A0F1807040EAD17073
:1002C000490009E0490841EAC071A0EBC35000F5BC
:1002D0000000400800EBC350F0BC00F05FBA614280
:1002E000012202EB4101001BF6E7F0BC704781F0F0
:1002F0000041AAE780F00040A7E780EA010210B5BC
:1003000002F00043400022D04A001FD0010E01EB52
:100310001261C0F35600C2F3560240F4000042F4EA
:100320000002A0FB022000047F39140400D0401C0E
:1003300050EA124001D44000491EC2B20C0604EB40
:10034000D010401C4008802A02D003E0002010BDDD
:1003500020F00100002900DA0020184310BD30B45D
:1003600080EA010202F0004530F0004221F0004036
:1003700013D090B1C30DD40DC2F31601C0F3160013
:10038000E41A41F4000140F400027D34914201D3AB
:10039000641C00E04900002C02DA30BC00207047E9
:1003A0004FF400000023914201D3891A034340080F
:1003B0004FEA4101F7D151B1914202D14FF00041D2
:1003C00005E002D24FF0010101E06FF0010103EB03
:1003D000C450284430BC00F0E1B92DE9FE4F81EA59
:1003E000030404F0004421F0004100944FF0000B9E
:1003F00023F0004350EA01045ED052EA03045BD0CC
:10040000C3F30A54C1F30A552C44A4F2F334019403
:10041000A0FB0254C1F3130141F48011C3F3130391
:1004200043F4801301FB024400FB034E840A970A45
:1004300044EA815447EA8357A4FB076802958D0A72
:1004400005FB07854FEA932C04FB0C542705029DFE
:100450004FEA065847EA1637B5EB08056EEB070C6E
:10046000870E920E47EA811742EA8312A7FB020128
:10047000B6EB0B0164EB00042B0D43EA0C335E1862
:1004800044EB1C50DA465146E7FB0201C5F3130466
:100490004FEA0B3343EA14534FEA0432019C43EA18
:1004A0000603A4F10C040294009CCDE900B400F012
:1004B000BBF903B0BDE8F08F00200146F9E72DE954
:1004C000F04D81EA030404F0004B21F0004514468E
:1004D0004FF0000A23F0004150EA050220D054EA10
:1004E00001021DD0C5F30A570246C5F31303C1F339
:1004F0001300C1F30A5640F4801543F48013A7EBB0
:100500000608101BD64608F2FD3873EB050002D32F
:1005100008F1010801E092185B41B8F1000F03DA1D
:1005200000200146BDE8F08D00204FF48011064602
:1005300084460EE0171B73EB050705D3121B63EB14
:10054000050306434CEA010C49084FEA30009218B3
:100550005B4150EA0107EDD152EA030012D082EA72
:10056000040083EA0501084305D0101BAB4106D205
:100570000122002306E000224FF0004302E06FF06A
:10058000010253101AEB06004CEB085110EB0A0065
:1005900041EB0B01BDE8F04D00F037B9002801DB5D
:1005A000C0F10040002901DBC1F10041814201D8C6
:1005B0000120704700207047002801DBC0F1004097
:1005C000002901DBC1F10041814201D201207047C5
:1005D00000207047002801DBC0F10040002901DB4A
:1005E000C1F10041814201D10120704700207047D4
:1005F00030B5041E71F1000404DB4FF000444042AA
:1006000064EB0101141E73F1000405DB1C464FF07E
:100610000043524263EB0403801A994101D3012045
:1006200030BD002030BDC10F80EAE0700844CA0729
:100630009623002100F0BBB896230022114600F05B
:10064000B6B80EB5C10F80EAE0700844CA070021B1
:1006500040F233438DE80E000A460B4600F0E4F802
:1006600003B000BD00F0004220F00040C10DC0F317
:10067000160040F400007F2901DA00207047962917
:1006800003DCC1F19601C84001E096398840002A98
:10069000F4D04042704770B5C1F30A5201F00045F2
:1006A0000024C1F3130140F2FF3341F480119A4258
:1006B00001DA002070BD40F233439A42A2F2334285
:1006C00003DC524200F05AF800E090402C43F1D095
:1006D000404270BD00F0004230F000400AD0C10D31
:1006E00001F56071C0F3160042EA0151C2084007EB
:1006F0001143704700200146704701F0004330B4B9
:1007000021F0004150EA010206D00A0DA2F5607204
:10071000C1F31301002A02DC30BC00207047440FF3
:1007200044EAC104C100E01830BC00EBC25000F044
:1007300035B830B50B46014600202022012409E0DF
:1007400021FA02F59D4205D303FA02F5491B04FA8A
:1007500002F52844151EA2F10102F1DC30BD202A69
:1007600004DB203A00FA02F1002070479140C2F108
:10077000200320FA03F3194390407047202A04DB3A
:10078000203A21FA02F00021704721FA02F3D0400A
:10079000C2F1200291400843194670470029A8BFC2
:1007A0007047401C490008BF20F00100704710B49A
:1007B000B0FA80FC00FA0CF050EA010404BF10BC4F
:1007C000704749B1CCF1200421FA04F411FA0CF17C
:1007D00018BF012121430843A3EB0C01CB1D4FEAB5
:1007E00000614FEA102042BF002010BC704700EBB0
:1007F000C35010440029A4BF10BC7047401C4900DE
:1008000008BF20F0010010BC704710B5141E73F132
:10081000000408DA401C41F1000192185B411A43C0
:1008200001D120F0010010BD2DE9F04D92469B460C
:1008300011B1B1FA81F202E0B0FA80F220329046B2
:10084000FFF78DFF04460F4640EA0A0041EA0B011C
:1008500053465A46084313D0114653EA010019D0B3
:10086000C8F140025046FFF789FF05460E46504644
:1008700059464246FFF773FF084305D0012004E0C4
:1008800020463946BDE8F08D0020054346EAE07673
:100890002C4337430A986305E40AA0EB08000022C2
:1008A000FD0A44EA47540A3002D500200146E9E730
:1008B000010510196941DDE9084500196941BDE8E4
:1008C000F04DA2E72DE9FE4F804681EA0300C00FFC
:1008D0000C46009021F0004123F00045B8EB0200E7
:1008E000A94105D24046214690461C460B46024689
:1008F00023F00040104347D0270DC7F30A00C3F38D
:100900000A510290401A019040286BDAC3F3130099
:1009100040F4801B0098924620B10023D2EB030ADA
:1009200063EB0B0B01985946C0F140025046FFF7AC
:1009300016FF06460D4650465946019A00F024F926
:1009400010EB08006141002487EA115284EAE77342
:100950001A4340D0009A62B3019A012A4FEA075223
:1009600015DC001B61EB02014FF0004202EA075266
:10097000CDE90042001C41F5801132462B46FFF7BD
:1009800053FF03B0BDE8F08F40462146F9E7001B56
:1009900061EB0201001C41F5801300185B41201837
:1009A000A2F5001747EB030140EAD570B6196D4177
:1009B00011E06D084FEA360645EAC0754FEA075266
:1009C000001B61EB0201001C41F5801149084FEA50
:1009D00030000019514132462B4603B0BDE8F04FBC
:1009E000FFF713BF0098012240000023D0EB020262
:1009F00063EBE073009821464FEAE074B8EB000027
:100A000061EB0401E9E783F000435BE781F000411B
:100A100058E770B521F0004303430CD0C1F30A55E9
:100A20000024D5EB040564EB0403D617AD1AB341DB
:100A300002DB0020014670BD201841EB025170BD61
:100A40002DE9F041054621F000400C46284309D02D
:100A5000C4F30A5040F23341884205DD284621465E
:100A6000BDE8F0812846FBE740F2FE31884210DC09
:100A70000CDB4FEA043040EA155050EA053105D04E
:100A8000104804F0004101430020E9E7002001463E
:100A9000E6E7A0F233404642C6F14002284621462E
:100AA000FFF75DFE07468846284621463246FFF797
:100AB00065FE43463A46FFF7A8FE3246BDE8F041E0
:100AC000FFF74DBE0000F03FC1F30A52C1F313011E
:100AD00040F2FF3341F480119A4202DA00200146CD
:100AE000704740F233439A42A2F2334202DC524250
:100AF000FFF744BEFFF733BE30B5041E71F10004AA
:100B000004DB4FF00044404264EB0101141E73F11A
:100B1000000405DB1C464FF00043524263EB040324
:100B20008B4208BF824230BD30B5041E71F1000413
:100B300004DB4FF00044404264EB0101141E73F1EA
:100B4000000405DB1C464FF00043524263EB0403F4
:100B5000994208BF904230BD1CB509480090094831
:100B600001900546009C06E0E06840F0010394E82F
:100B7000070098471034AC42F6D3FFF7BBFA0000E9
:100B8000D8E40008F8E40008202A06DBCB17203A56
:100B900041FA02F043EAE07306E041FA02F3D04082
:100BA000C2F1200291400843194670472DE9F04DEB
:100BB00000231A461B1A8A4103DB00200146BDE8C8
:100BC000F08DC1F30A52C1F3130141F480154FF0C7
:100BD000000BD10702D100186D41521E00270446B8
:100BE00040F2FF11384601EB620A3E46804602465B
:100BF00000204FF48011FFF7C1FDC2197141BB18ED
:100C000046EB0100B4EB030C75EB000C04D3E41AC3
:100C100065EB000517460E46241908F101006D41E9
:100C200080463428E3DDF91946EB0600091BA8418C
:100C300003D24FF0FF32134601E0002213461BEBB4
:100C4000070046EB0A51BDE8F04DFFF7DEBD00009E
:100C500080B58EB0DDF840C00B910A90BDF82C0035
:100C6000ADF834000A980C9007930692BDF81C006A
:100C7000ADF8240006980890DDF840C0BDF83400B7
:100C8000ADF810000C98039003980499BDF8242047
:100C9000ADF80820089A0192019A029BEE46CEF820
:100CA00000C001F00DF80590059880B1FFE70599A7
:100CB0001520C861059943F24910C0F6000048604C
:100CC000059943F23510C0F600008860FFE70598EB
:100CD0000EB080BD80B592B0042004900121039134
:100CE00001F0B2FA0399049801F094FA0398ADF870
:100CF0003C004820119003200090109040F6000026
:100D0000C4F201000FA900F029FA039808900B9093
:100D100000200190099010200A9008A800F02EF9F8
:100D20000098039906228DF8182007918DF8190074
:100D30008DF81A0006A8059001F00AFA019840F60D
:100D40000F61ADF83210ADF834001321ADF8361054
:100D5000ADF8380040F60000C4F2000002900DF13A
:100D6000320101F06DFD0298039901F0FBFC02983D
:100D7000039A114601F04CFD4FF4A06001F03CFADB
:100D8000039A049905981E238DF8183007928DF860
:100D900019108DF81A1001F0DBF94CF2C260C0F6A0
:100DA000000008F015FE40F27801C2F2000140F6A2
:100DB000BD50C0F60000486012B080BD40F278011E
:100DC000C2F20001002008607047000080B582B0C8
:100DD00040F28000C2F200000068019020B1FFE7FD
:100DE000019801280DD019E040F28001C2F2000103
:100DF000012008604CF24440C0F6000008F0E8FD15
:100E00000CE040F28001C2F20001002008604CF2C8
:100E10002640C0F6000008F0DBFDFFE702B080BD11
:100E200080B582B00190FFE70198411E019128B181
:100E3000FFE74FF47A7000F003F8F5E702B080BDE9
:100E400081B00090009800EBC000C0004EF2140189
:100E5000CEF2000108604EF21801CEF2000100202F
:100E600008604EF21001CEF2000105200860FFE795
:100E70004EF21000CEF200000068C003002801D43A
:100E8000FFE7F5E74EF21001CEF200010420086002
:100E900001B0704780B5012000F04EF8012813D151
:100EA000FFE740F27800C2F20000006840B9FFE7B7
:100EB00040F60000C4F20000012101F06BFCFFE7E6
:100EC000012000F02FF8FFE780BD000080B582B060
:100ED000202000F031F8012821D1FFE740F28800FE
:100EE000C2F200000190007800F0D0FB0199087870
:100EF00001300870C0B296280DDBFFE740F2880190
:100F0000C2F200010020087040F28C00C2F2000022
:100F100080688047FFE7202000F004F8FFE702B078
:100F200080BD000081B00090009840F21441C4F2EE
:100F30000101086001B0704783B002900020019069
:100F4000009040F20040C4F201000068029908409D
:100F5000009040F21440C4F2010000680299084277
:100F600006D0FFE7009818B1FFE70120019002E0EA
:100F700000200190FFE7019803B0704782B0019014
:100F80000020009040F20040C4F20100009001985F
:100F9000C068002859D0FFE70198026840F200417C
:100FA000C4F201010868904308600198026840F2A9
:100FB0000441C4F201010868904308600198416847
:100FC000009808440090019802680099086810434E
:100FD00008600198026840F20841C4F20101086803
:100FE000904308600198026840F20C41C4F201018C
:100FF00008689043086001988068102813D1FFE7C3
:101000000198026840F20841C4F2010108681043E7
:1010100008600198026840F20C41C4F201010868BE
:101020001043086010E040F20040C4F2010000905C
:10103000019881680098084400900198026800991E
:10104000086810430860FFE70BE0019841680098CA
:10105000084400900198026800990868904308606D
:10106000FFE702B07047000040F20041C4F2010106
:10107000086840F0010008607047000040F200413D
:10108000C4F20101086820F0010008607047000008
:1010900080B586B068200190019807F04BFF04905E
:1010A000049818B9FFE70020059029E00498303033
:1010B000039003981C30029004991A20C861049987
:1010C00044F6D960C0F600004860049944F67160A7
:1010D000C0F600008860039901200876029900207C
:1010E00008760498039904F0A5FC04990862049812
:1010F000029904F09FFC0499486204980590FFE768
:10110000059806B080BD000082B08DF807008DF80C
:101110000610002000909DF8060000F003008100FA
:101120000F2088400090009B9DF8060000F0FC0115
:101130000822C4F201028858984388509DF807108D
:101140009DF8060000F003039B0001FA03F300F092
:10115000FC0188581843885002B0704788B0079047
:101160000691002005900490039002900190009059
:101170000698806800F00F0005900698007AC00677
:10118000002806D5FFE706984168059808430590B2
:10119000FFE70698007800284BD0FFE70798006823
:1011A000019000200390FFE7039807283DD8FFE750
:1011B000039901208840029006980088029908400F
:1011C00004900498029988422AD1FFE7039880008E
:1011D000029002990F20884000900099019888435E
:1011E00001900598029900FA01F1019808430190D5
:1011F00006988068282806D1FFE7039901208840D7
:10120000079948610BE006988068482806D1FFE7F7
:1012100003990120884007990861FFE7FFE7FFE78E
:10122000FFE7039801300390BEE701980799086033
:10123000FFE706980088B0F5807F50DBFFE707984E
:101240004068019000200390FFE70398072842D8E8
:10125000FFE7039800F108010120884002900698FA
:1012600000880299084004900498029988422DD180
:10127000FFE703988000029002990F2088400090B9
:1012800000990198884301900598029900FA01F1AC
:1012900001980843019006988068282808D1FFE744
:1012A000039800F108010120884007994861FFE791
:1012B00006988068482808D1FFE7039800F10801E4
:1012C0000120884007990861FFE7FFE7FFE70398DF
:1012D00001300390B9E7019807994860FFE708B02B
:1012E0007047000082B00190ADF8021000208DF828
:1012F000010001988068BDF80210084204D0FFE7A1
:1013000001208DF8010003E000208DF80100FFE7C7
:101310009DF8010002B0704782B00190ADF8021054
:10132000BDF802000199086102B0704783B00290D5
:10133000ADF806100092009828B1FFE7BDF806004E
:101340000299086104E0BDF8060002994861FFE7D0
:1013500003B0704783B00290ADF8061000208DF8FE
:101360000500ADF80200FFE7BDF80200BDF8061069
:10137000884210DAFFE70298BDF80210415C9DF840
:10138000050008448DF80500FFE7BDF802000130B4
:10139000ADF80200E8E79DF8050003B070470000D3
:1013A00080B586B008200121029100F04DFF142085
:1013B0000590C020ADF80C000320049040F60040DA
:1013C000C4F20100019003A9FFF7C8FE0198029A38
:1013D0008021FFF7ABFF0198029A4021FFF7A6FF9B
:1013E00006B080BD80B582B000208DF8070040F6C1
:1013F0000040C4F201008021FFF774FF8DF8070060
:101400009DF8070002B080BD80B582B00120009039
:1014100000F0A8F8009800F093F8FFF7E3FF8DF8CC
:101420000700002000F08CF89DF8070002B080BD96
:1014300080B582B0002000908DF807008DF806007E
:10144000012000F08FF800988DF80700FFE79DF865
:10145000070007281DDCFFE7012000F071F8FFF707
:10146000C1FF01280BD1FFE79DF80710802020FA6B
:1014700001F19DF8060008438DF80600FFE7002003
:1014800000F05EF8FFE79DF8070001308DF80700D7
:10149000DDE79DF8060002B080BD000080B582B097
:1014A0008DF807009DF8070000F05CF8012000F0BF
:1014B00047F8002000F044F802B080BD80B582B04B
:1014C0008DF80700002000900090FFE700980728A3
:1014D00013DCFFE79DF80700009A8021D140084007
:1014E00000F040F8012000F02BF8002000F028F870
:1014F000FFE7009801300090E8E702B080BD0000EF
:1015000080B582B00120009000F02CF8009800F027
:1015100017F80020019000F025F8019800F010F86D
:1015200002B080BD80B582B0002000F01BF8012021
:10153000019000F005F8019800F014F802B080BDA9
:1015400080B582B08DF807009DF8072040F6004076
:10155000C4F201004021FFF7E9FE0520FFF770FC0F
:1015600002B080BD80B582B08DF807009DF80720DD
:1015700040F60040C4F201008021FFF7D7FE0520AD
:10158000FFF75EFC02B080BD80B582B08DF8070029
:101590008DF806108DF805200093FFF7B1FF9DF838
:1015A00007004000C0B2FFF789FFFFF72DFF9DF84D
:1015B0000600FFF783FFFFF727FFFFF7A1FF9DF866
:1015C000070040000130C0B2FFF778FFFFF71CFFB3
:1015D000FFE79DF80500F0B1FFE79DF80500012841
:1015E00008D1FFE7FFF724FF009908700120FFF7FB
:1015F00055FF07E0FFF71CFF009908700020FFF778
:101600004DFFFFE70098013000909DF8050001387C
:101610008DF80500DDE7FFF785FF002002B080BDF3
:1016200080B584B08DF80F008DF80E108DF80D2068
:101630000293002000900190FFF762FF9DF80F00D9
:101640004000C0B2FFF73AFFFFF7DEFE9DF80E0044
:10165000FFF734FFFFF7D8FE00980190FFE70198ED
:101660009DF80D1088420CDAFFE702980199405C62
:10167000FFF724FFFFF7C8FEFFE701980130019054
:10168000EDE7FFF74FFF002004B080BD80B592B0BA
:101690008DF84700682005903B21062204920DF149
:1016A0004103FFF771FF9DF841109DF8420040EAA9
:1016B000012040F6A861C2F2000106910A88801A52
:1016C000ADF82E009DF843209DF8440040EA02202A
:1016D0004A88801AADF830009DF845209DF84600F4
:1016E00040EA02208988401AADF83200BDF92E0088
:1016F000FEF7A7FF002201920023C4F2C003029369
:10170000FEF7DDFEFEF7F9FF9DF8472040F28C0161
:10171000C2F2000107910C31039102EB420241F841
:101720002200BDF93000FEF78CFF019A029BFEF704
:10173000C6FEFEF7E2FF03999DF8472002EB420246
:1017400001EB82014860BDF93200FEF77AFF019A91
:10175000029BFEF7B4FEFEF7D0FF039B049A0146FE
:1017600005989DF847C00CEB4C0C03EB8C0399607B
:1017700043210DF13B03FFF707FF06999DF83B203E
:101780009DF83C0040EA02200A88801AADF82E003D
:101790009DF83D209DF83E0040EA02204A88801ACC
:1017A000ADF830009DF83F209DF8400040EA02204F
:1017B0008988401AADF83200BDF92E00FEF741FFCE
:1017C00042F22112C1F2CA72089247F25C53C4F28B
:1017D000B0030993FEF773FEFEF78FFF07999DF89C
:1017E000472001F214710A9102EB420241F82200F3
:1017F000BDF93000FEF725FF089A099BFEF75FFE52
:10180000FEF77BFF0A999DF8472002EB420201EBAD
:1018100082014860BDF93200FEF713FF089A099B68
:10182000FEF74DFEFEF769FF0A999DF8472002EB8F
:10183000420201EB8201886012B080BD80B500F0E9
:1018400065F940F28C01C2F2000141F66100C0F678
:101850000000486041F68900C0F60000886080BD45
:1018600040F20041C4F20101086820F00100086064
:10187000086840F02000086040F28C01C2F20001CC
:10188000012008607047000040F20041C4F20101ED
:10189000086840F001000860086820F02000086037
:1018A00040F28C01C2F20001022008607047000083
:1018B00080B584B003908DF80B10039801900199C6
:1018C000481C0190682008700199481C019008206C
:1018D00008700199481C0190002008700199481C6B
:1018E0000190FF2008700199481C01901020087099
:1018F0009DF80B0001994A1C01920870039AD01CB4
:101900000199891A033989B2FFF724FD01990870FA
:101910000198013001900199481C0190162008702F
:1019200001980399401A80B204B080BD80B584B09C
:1019300003908DF80B10039801900199481C0190B9
:10194000682008700199481C0190082008700199CE
:10195000481C0190002008700199481C0190FF204C
:1019600008700199481C0190122008709DF80B0026
:1019700001994A1C01920870039AD01C0199891A96
:10198000033989B2FFF7E6FC01990870019801302C
:1019900001900199481C0190162008700198039944
:1019A000401A80B204B080BD80B58CB00B9000208E
:1019B0000A900B980990042800F281800999DFE8C9
:1019C00001F0030C5B15380040F60000C4F2010082
:1019D00002210022FFF7AAFC71E040F60000C4F2E9
:1019E000010002210122FFF7A1FC68E000200A901B
:1019F000FFE70A9805281BDCFFE740F60000C4F269
:101A000001000690022107910022FFF78FFC64205D
:101A10000890FFF705FA069807990122FFF786FC60
:101A20000898FFF7FDF9FFE70A9801300A90E0E710
:101A300045E000200A90FFE70A980A281BDCFFE730
:101A400040F60000C4F2010003900221049100223C
:101A5000FFF76CFC32200590FFF7E2F90398049938
:101A60000122FFF763FC0598FFF7DAF9FFE70A9810
:101A700001300A90E0E722E000200A90FFE70A9890
:101A800003281BDCFFE740F60000C4F201000090D1
:101A9000022101910022FFF749FCFA200290FFF792
:101AA000BFF9009801990122FFF740FC0298FFF767
:101AB000B7F9FFE70A9801300A90E0E7FFE70CB0BA
:101AC00080BD000080B584B00420012100F0BCFB83
:101AD000102003900220ADF804000320029040F68D
:101AE0000000C4F2010001A9FFF738FB40F6B46022
:101AF000C2F200000021416041F6A911C0F60001C8
:101B0000016001684068884704B080BD80B590B02E
:101B100009200121039100F097FB48200F9020201D
:101B20000190ADF8340003200E9040F60040C4F25E
:101B300001000DA9FFF712FB03980521FFF7E4FA56
:101B40000199039809910C90002002900A900C20B2
:101B50000B9009A8FFF712FA039817218DF81C10B3
:101B6000089006208DF81D008DF81E0007A800F0D3
:101B7000EFFA40F20041C4F20101086820F02000B1
:101B80000860FFF70DFC0298039A069005908DF807
:101B90001300682075210DF11303FFF7F5FC9DF884
:101BA0001300682802D0FFE701F060F9059805F0FE
:101BB000E9FF002840F08280FFE7782006F08CFFE4
:101BC00038B9FFE74CF26760C0F6000007F000FF8D
:101BD000FFE7782005F044FE38B9FFE74CF2426099
:101BE000C0F6000007F0F4FEFFE7642006F0F6FE02
:101BF00038B9FFE74CF2AE50C0F6000007F0E8FE3F
:101C0000FFE702F08DFC38B9FFE74CF25750C0F601
:101C1000000007F0DDFEFFE740F20800C2F200001E
:101C200003F098FE02F030FE38B9FFE74CF21C607A
:101C3000C0F6000007F0CCFEFFE740F2731002F0A0
:101C4000BFFA38B9FFE74CF28950C0F6000007F040
:101C5000BFFEFFE7642002F01DFD38B9FFE74CF23C
:101C6000D450C0F6000007F0B3FEFFE707F03EFCDB
:101C7000002006F015FD38B9FFE74CF2F850C0F629
:101C8000000007F0A5FEFFE706A802F055FD38B9F1
:101C9000FFE74CF28860C0F6000007F099FEFFE70E
:101CA000042006F09FFB4FF4FA7006F061FD4CF241
:101CB000A360C0F6000007F08BFEFFE710B080BD08
:101CC00080B58EB0DDF840C00A910990BDF82800BB
:101CD000ADF8300009980B9006930592BDF81800F6
:101CE000ADF820000598079090200090009807F02C
:101CF00021F90490049818B9FFE700200D9063E0E3
:101D000004984C30029002981C30019001981C30CD
:101D1000039004991320C861049947F20110C0F69A
:101D200000004860049946F6E570C0F6000088603F
:101D3000029901200876019908760399087204989F
:101D4000029903F077FE049908620498019903F060
:101D500071FE049948620398049908610499BDF8DA
:101D6000300088860B9808630499BDF820004887E6
:101D70000798C1F836001098049948640498406C9C
:101D8000012815D1FFE7BDF82C00013800EBD07019
:101D9000400804998887BDF82E00013800EBD07008
:101DA00040080499C88704990120A1F8400008E080
:101DB0000499002088870499C8870499A1F84000F5
:101DC000FFE704980D90FFE70D980EB080BD00006E
:101DD00080B500F037FE80BD80B5002003F084FCA4
:101DE00080BD000080B5012003F07EFC80BD0000B6
:101DF00070470000704700007047000080B58AB04F
:101E000004200121019100F01FFA0199082000F03F
:101E10001BFA10200990F0200490ADF81C0003205C
:101E2000089040F60000C4F20100039007A9029157
:101E3000FFF794F9029940F601400690ADF81C00B6
:101E400040F60040C4F201000590FFF787F90398BF
:101E50000499FFF761FA05980699FFF75DFA0AB051
:101E600080BD0000704700007047000080B58AB058
:101E700004200121019100F0E7F90199082000F008
:101E8000E3F910200990F0200490ADF81C00032025
:101E9000089040F60000C4F20100039007A90291E7
:101EA000FFF75CF9029940F601400690ADF81C007E
:101EB00040F60040C4F201000590FFF74FF9039887
:101EC0000499FFF729FA05980699FFF725FA0AB051
:101ED00080BD0000704700007047000080B58AB0E8
:101EE00004200121019100F0AFF90199082000F0D0
:101EF000ABF910200990F0200490ADF81C000320ED
:101F0000089040F60000C4F20100039007A9029176
:101F1000FFF724F9029940F601400690ADF81C0045
:101F200040F60040C4F201000590FFF717F903984E
:101F30000499FFF7F1F905980699FFF7EDF90AB052
:101F400080BD00007047000070470000704700002F
:101F500070470000704700007047000070470000A5
:101F60007047000070470000704700007047000095
:101F70007047000070470000704700007047000085
:101F80007047000070470000704700007047000075
:101F90007047000010B5A8B04AF6407EC0F6000EAB
:101FA000CDF804E0DEF80000DEF80410DEF80820CA
:101FB000DEF80C30DEF810C0DEF814402194CDF8C5
:101FC00080C01F931E921D911C90DEF81800DEF851
:101FD0001C10DEF82020DEF82430DEF828C0DEF801
:101FE0002CE0CDF89CE0CDF898C025932492239165
:101FF00022904AF6707EC0F6000ECDF808E0DEF8BA
:102000000000DEF80410DEF80820DEF80C30DEF800
:1020100010C0DEF814401594CDF850C013931292FE
:1020200011911090DEF81800DEF81C10DEF8202068
:10203000DEF82430DEF828C0DEF82CE0CDF86CE0C5
:10204000CDF868C019931892179116904AF6A07EA1
:10205000C0F6000ECDF80CE0DEF80000DEF804104B
:10206000DEF80820DEF80C30DEF810C0DEF8144090
:102070000994CDF820C00793069205910490DEF8EC
:102080001800DEF81C10DEF82020DEF82430DEF820
:1020900028C0DEF82CE0CDF83CE0CDF838C00D9338
:1020A0000C920B910A9040F6BC60C2F200000068EE
:1020B0000B2828D8FFE740F6BC60C2F20000016898
:1020C0001CA850F82100F0B1FFE740F6BC60C2F256
:1020D0000000009001681CA850F82100804700987B
:1020E00001684CF25340C0F6000007F071FC009903
:1020F0000A6810A850F8220048600A6804A850F83E
:10210000220088600EE040F6BC61C2F2000142F29B
:102110002910C0F60000486042F23D10C0F60000F1
:102120008860FFE728B010BD80B540F6B460C2F209
:10213000000001680420884780BD000080B540F69B
:10214000B460C2F2000001680320884780BD00002F
:1021500084B003900020029001900F20009003981B
:102160004068B8B3FFE74EF60C50CEF200000068AE
:10217000C043C0F3022002900298C0F10400019015
:1021800000980299C84000900398407801998840CF
:1021900002900398807800990140029808430290C9
:1021A0000298000102900298039909784EF20042C9
:1021B000CEF2000288540398027802F01F01012039
:1021C00088401C2101EAD2014EF20012CEF2000238
:1021D00088500EE00398027802F01F010120884029
:1021E0001C2101EAD2014EF28012CEF20002885088
:1021F000FFE704B07047000081B000900098002114
:10220000C0F2FA5108434EF60C51CEF200010860BC
:1022100001B0704782B001900091009848B1FFE78B
:10222000019A41F21C01C4F20201086810430860DF
:1022300008E0019A41F21C01C4F2020108689043CF
:102240000860FFE702B0704782B0019000910098EB
:1022500048B1FFE7019A41F21801C4F2020108688F
:102260001043086008E0019A41F21801C4F202012B
:10227000086890430860FFE702B0704786B0059099
:102280000020049003900290019041F20400C4F2F7
:102290000200006800F00C0004900498009040B127
:1022A000FFE7009804280BD0FFE7009808280ED01D
:1022B00047E0059941F20020C0F27A00086047E04B
:1022C000059941F20020C0F27A00086040E041F236
:1022D0000400C4F20200016801F470110391006867
:1022E00000F4803002900399022000EB91400390AB
:1022F000029848B9FFE7039840F60011C0F23D018B
:102300004843059908601BE041F20400C4F2020052
:1023100000688003002809D5FFE7039840F6001104
:10232000C0F23D0148430599086008E0039841F276
:102330000021C0F27A01484305990860FFE7FFE7F2
:1023400006E0059941F20020C0F27A000860FFE73C
:1023500041F20400C4F20200016801F0F0010491AE
:10236000049909090491049A4BF20C01C0F600018A
:102370008A5C0192059B1A68DDF804C022FA0CF20F
:102380005A60026802F4E0620492049A120A04920B
:10239000049A8A5C0192059B5A68DDF804C022FA0F
:1023A0000CF29A60026802F460520492049AD20A13
:1023B0000492049A895C0191059A5168019BD94065
:1023C000D160006800F4404004900498800B0490B1
:1023D00004994BF20800C0F60000405C019005999A
:1023E000C868019AB0FBF2F0086106B070470000BF
:1023F00080B500F001F880BD84B000200390029009
:1024000041F20001C4F20201086840F48030086023
:10241000FFE741F20000C4F20200006800F400305F
:102420000290039801300390FFE702990020019089
:1024300039B9FFE70398B0F5A06018BF01200190FB
:10244000FFE70198C0070028E3D1FFE741F2000051
:10245000C4F2020000688003002803D5FFE70120D2
:10246000029002E000200290FFE70298012851D17B
:10247000FFE742F20001C4F20201086840F01000D8
:102480000860086820F007000860086840F0020053
:10249000086041F20401C4F202010091086808607A
:1024A00008680860086840F480600860086820F4E4
:1024B0007C100860086840F4E810086041F20001F0
:1024C000C4F20201086840F080700860FFE741F242
:1024D0000000C4F2020000688001002801D4FFE778
:1024E000F5E741F20401C4F20201086820F003009C
:1024F0000860086840F002000860FFE741F204004D
:10250000C4F20200006800F00C00082801D0FFE7C8
:10251000F4E700E0FFE704B07047000080B586B044
:1025200068200190019806F005FD0490049818B900
:10253000FFE70020059028E00498303003900398CE
:102540001C30029004991220C861049949F2597014
:10255000C0F600004860049949F20970C0F6000016
:1025600088600399012008760299087604980399F7
:1025700003F060FA049908620498029903F05AFA89
:102580000499486204980590FFE7059806B080BD5D
:1025900080B541F20002C4F20202106840F001006E
:1025A000106041F20401C4F2020108680023CFF672
:1025B000FF031840086010684FF6FF73CFF6F6630C
:1025C00018401060106820F480201060086820F423
:1025D000FE00086041F20801C4F202014FF41F003E
:1025E0000860FFF705FF4EF60851CEF200014FF0EC
:1025F0000060086080BD000080B500F0C3F9FFF7FF
:1026000061FAFEF767FBFFF719F940F6BC61C2F209
:102610000001002008604CF23540C0F6000007F0D1
:10262000D7F9FFF7B7FC80BD80B582B040F6000057
:10263000C4F20000012100F0C1F8012840F08F80B1
:10264000FFE740F60000C4F201000121FEF74AFE58
:102650008DF8070041F2CC10C2F2000000789DF81E
:10266000071088421AD1FFE79DF80700B0B9FFE7CD
:1026700043F6CE10C2F200000188013101800088CB
:1026800041F28831884208DBFFE743F6CE11C2F2FF
:1026900000014FF4FA700880FFE751E041F2CC10DE
:1026A000C2F2000000789DF80710884247D1FFE78A
:1026B0009DF80700012842D1FFE743F6D011C2F28E
:1026C000000108880130088043F6CE10C2F20000F5
:1026D0000088B0F5FA7F07DBFFE740F27801C2F22D
:1026E0000001032008600FE043F6CE10C2F20000A4
:1026F00000880A2807DBFFE740F27801C2F20001F8
:1027000002200860FFE7FFE743F6D010C2F20000A6
:1027100000880A2812DBFFE743F6CE10C2F2000061
:102720000021018043F6D010C2F20000018040F683
:102730000000C4F2000000F02DF8FFE7FFE7FFE71C
:102740009DF8070041F2CC11C2F20001087040F67A
:102750000000C4F20000012100F010F8FFE702B011
:1027600080BD000082B00190ADF80210BDF80200FB
:10277000C0430199088202B07047000082B0019006
:10278000ADF80210BDF80200C0430199088202B002
:102790007047000082B001900091009830B1FFE7CF
:1027A0000199088840F00100088005E00199088837
:1027B00020F001000880FFE702B0704784B003906A
:1027C000ADF80A1000200190ADF80200ADF800004D
:1027D0000398008ABDF80A100840ADF8020003987B
:1027E0008089BDF80A100840ADF80000BDF802006D
:1027F00038B1FFE7BDF8000018B1FFE701200190F4
:1028000002E000200190FFE7019804B0704700004B
:1028100083B00290ADF806100092009838B1FFE73F
:10282000BDF80620029988891043888106E0BDF82A
:1028300006200299888990438881FFE703B070479A
:1028400083B0029001910020ADF802000298008848
:10285000ADF80200029842F60041C4F2010188423C
:1028600025D0FFE7029843F20041C4F201018842FB
:102870001DD0FFE70298B0F1804F18D0FFE7029813
:1028800040F20041C4F20001884210D0FFE70298F4
:1028900040F60001C4F20001884208D0FFE7029828
:1028A00040F60041C4F2000188420ED1FFE7BDF8B6
:1028B000020020F07000ADF8020001984188BDF8D8
:1028C00002000843ADF80200FFE7029841F2000160
:1028D000C4F20001884216D0FFE7029841F200419D
:1028E000C4F2000188420ED0FFE7BDF8020020F4D8
:1028F0004070ADF802000198C188BDF8020008439D
:10290000ADF80200FFE7BDF80200029908800198C7
:102910008088029988850198008802990885029824
:1029200042F60041C4F20101884220D0FFE702983C
:1029300043F20041C4F20101884218D0FFE7029837
:1029400044F20001C4F20101884210D0FFE702986E
:1029500044F20041C4F20101884208D0FFE7029826
:1029600044F60001C4F20101884205D1FFE7019855
:10297000007A02990886FFE702990120888203B055
:102980007047000080B58EB044F20500012104912B
:10299000FFF75AFC18200D904FF40070ADF82C0092
:1029A000032000900C9040F60000C4F2010001905A
:1029B0000BA90291FEF7D2FB009A019802994823D5
:1029C0000D934FF48063ADF82C300C92FEF7C6FBEC
:1029D0004FF4612005900020ADF820000C21ADF8E7
:1029E0001E10ADF81C00ADF81A00ADF8180043F643
:1029F0000000C4F20100039005A900F0E1F803987B
:102A0000049A40F2255100F093F84FF4A060FFF7CC
:102A1000F3FB049825218DF824100A908DF82500E9
:102A20008DF8260009A8FFF793FB0398049900F09E
:102A30004DF84CF2B760C0F6000006F0C9FF0EB0CA
:102A400080BD000080B58CB004200090012104916D
:102A5000FFF7FAFB04994FF40030FFF7DBFB009817
:102A6000ADF8240018200B9003200A9040F60000D7
:102A7000C4F20100019009A90291FEF76FFB009AD0
:102A8000019802990823ADF824300B92FEF766FBFB
:102A90004FF4E13005900020ADF81800ADF81A00B1
:102AA000ADF81C00ADF820000C20ADF81E0044F27B
:102AB0000040C4F20000039005A900F081F80398DB
:102AC000049900F003F80CB080BD000082B00190C2
:102AD0000091009830B1FFE70199888940F40050D7
:102AE000888105E00199888920F400508881FFE7FA
:102AF00002B0704783B00290ADF80610002000903D
:102B0000BDF80600B0F5007F01D1FFE7FFE70298AE
:102B10000088BDF806100840000418B1FFE7012046
:102B2000009002E000200090FFE7009803B070479B
:102B300087B00690ADF81610049200200390029022
:102B400001900090BDF8160040F66A11884201D14C
:102B5000FFE7FFE7069800909DF8160040090390F4
:102B6000BDF8160000F01F00029002990120884075
:102B700001900398012804D1FFE700980C300090E1
:102B80000CE00398022804D1FFE700981030009071
:102B900003E0009814300090FFE7FFE7049830B19D
:102BA000FFE7019A009908681043086005E0019A60
:102BB0000099086890430860FFE707B0704700007D
:102BC00080B58CB00B900A91002009900890079076
:102BD000069005900A98808908B1FFE7FFE70B98F7
:102BE00005900B98008A099009984CF6FF710840EF
:102BF00009900A98C18809980843099009980B9987
:102C000008820B988089099009984EF6F3110840C4
:102C100009900A9988880A891043498901430998CB
:102C20000843099009980B9988810B98808A09902C
:102C300009984FF6FF41084009900A988189099840
:102C40000843099009980B9988826846FFF716FB9C
:102C5000059843F60001C4F20101884203D1FFE761
:102C60000398089002E002980890FFE70B9880898B
:102C7000000400280AD5FFE70898192148430A995B
:102C800009684900B0FBF1F0079009E008981921A4
:102C900048430A9909688900B0FBF1F00790FFE703
:102CA000079848F21F51C5F2EB11A0FB01016FF02C
:102CB0000F0000EA51000990079A09980009642161
:102CC00000FB112006900B9880890004002810D585
:102CD000FFE70699322000EBC10048F21F51C5F210
:102CE000EB11A0FB0110C0F34211099808430990B1
:102CF0000FE00699322000EB011048F21F51C5F297
:102D0000EB11A0FB0110C0F343110998084309908F
:102D1000FFE709980B9908810CB080BD82B0019043
:102D2000ADF80210BDF802006FF35F2001998880B2
:102D300002B0704780B582B00190ADF8021000205B
:102D4000ADF80000ADF80000FFE7BDF80000BDF8E9
:102D5000021088421DDAFFE70198BDF80010415CBF
:102D600044F20040C4F20000FFF7D8FFFFE744F24E
:102D70000040C4F200008021FFF7BCFE012801D012
:102D8000FFE7F4E7FFE7BDF800000130ADF8000011
:102D9000DBE702B080BD000085B00390029102988D
:102DA000411E012000FA01F14942019102990139C5
:102DB00088400138009003980199884203DAFFE7C0
:102DC000019804900AE003980099884203DDFFE728
:102DD0000098049002E003980490FFE7049805B07F
:102DE0007047000085B0039002910298411E0120B7
:102DF00000FA01F1494201910299013988400138F4
:102E0000009003980199884203DAFFE70198049043
:102E10000AE003980099884203DDFFE700980490D8
:102E200002E003980490FFE7049805B070470000A3
:102E300084B00290019101990120884001380090EE
:102E40000298B0F1FF3F03DCFFE7002003900AE0A7
:102E500002980099884203DDFFE70098039002E0A2
:102E600002980390FFE7039804B07047BFF34F8FB9
:102E70004EF60C51CEF20001086800F4E060042226
:102E8000C0F2FA5210430860BFF34F8FFFE700BF54
:102E9000FDE7000080B58EB00D900C9100200490ED
:102EA0000A9007A802F046F804980B90FFE70B98E9
:102EB00002286EDCFFE70D980B9A50F822000C995F
:102EC00051F82210401A02900028039002D502986F
:102ED000404203900398FDF7A6FB4FF08F41FDF7AA
:102EE0003EFA06900B9907A850F821000021FDF743
:102EF00071FB60BBFFE706980B9A07A951F82210F7
:102F0000FDF72DFA0021CBF68071FDF79EF90590B3
:102F10000598FDF7DFFB009021F0004001904EF294
:102F2000B040C0F60000406AFDF7D4FB02460098AE
:102F30000B460199FDF75CFB40B9FFE70B990120B7
:102F400000FA01F10A9808430A90FFE71CE006988E
:102F50004EF2B041C0F60001C969FDF72DFB50B932
:102F6000FFE706984EF2B041C0F60001096AFDF78E
:102F700015FB40B9FFE70B99012000FA01F10A980F
:102F800008430A90FFE7FFE7FFE70B9801300B903B
:102F90008DE70A980EB080BD83B00290019102982F
:102FA00000900138032805D3FFE70098043804286F
:102FB00001D303E003E007200190FFE7FFE701985A
:102FC00003B0704780B584B00290102005F0B2FFC6
:102FD0000190019818B9FFE70020039014E00199CF
:102FE00045F63D30C0F60000086001990220886077
:102FF00002984FF08641FDF780F9FDF733FB019908
:10300000087301980390FFE7039804B080BD0000A7
:1030100080B584B00290002001900090FFE70098F6
:1030200007280FD8FFE70298009901EB410100EB58
:103030008100007A08B9FFE704E0FFE7009801305B
:103040000090ECE70098082809D1FFE74BF61D70C7
:10305000C0F6000006F0BCFC0020039009E00298D6
:10306000009901EB410100EB810001900198039070
:10307000FFE7039804B080BD80B584B00290029849
:1030800018B9FFE70020039021E002980190019811
:10309000006818B9FFE70198039018E0FFE701986E
:1030A000406820B1FFE7019840680190F7E70820E9
:1030B00005F040FF019948600198406818B9FFE7A2
:1030C0000020039003E0019840680390FFE7039815
:1030D00004B080BD80B582B00090009818B9FFE7B9
:1030E0000020019023E00098006818B9FFE70098DD
:1030F00001901CE0FFE70098806820B1FFE700988E
:1031000080680090F7E71C2005F014FF00998860A4
:103110000098806818B9FFE70020019007E0009848
:10312000816840694861009880680190FFE70198D4
:1031300002B080BD80B582B00190019803F052FFCB
:10314000002002B080BD00002DE9F04F93B0129036
:10315000129811901298406AC068007D012806D12B
:10316000FFE70120ADF84200ADF840000EE01298F4
:10317000406AC06840684088ADF842001298406AD2
:10318000C06840680088ADF84000FFE71298006A08
:10319000C068407D102841D1FFE71298016A406A5B
:1031A000C9680A680E924B6859881A889B88DDF8AE
:1031B00044E0BEF832C0BEF83040BEF83E50BEF823
:1031C0003C60BEF83870BEF83680BDF84290BDF85D
:1031D00040A0BEF848B0C068D0F800E068460F9044
:1031E000C0F828E04FF0000EC0F824E00E98DDF89B
:1031F0003CE0CEF820B0CEF81CA0CEF81890CEF867
:103200001480CEF81070CEF80C60CEF80850CEF8CE
:103210000440CEF800C002F0BFFC40E01298016A02
:10322000406AC9680A680C924B6859881A889B885A
:10323000DDF844E0BEF832C0BEF83040BEF83E5083
:10324000BEF83C60BEF83870BEF83680BDF84290DB
:10325000BDF840A0BEF848B0C068D0F800E06846AD
:103260000D90C0F828E04FF0000EC0F824E00C9854
:10327000DDF834E0CEF820B0CEF81CA0CEF81890DF
:10328000CEF81480CEF81070CEF80C60CEF808504E
:10329000CEF80440CEF800C002F078FDFFE7002031
:1032A00013B0BDE8F08F000080B592B01190119876
:1032B00090F90E0001282BD1FFE7119890F90A2010
:1032C0000DF13A000121019102F0DAFB0199119808
:1032D00090F90C200DA806F067FA1198D0F804C0F8
:1032E000BDF83E00ADF83000DDF83A000B900B98C9
:1032F0000C99BDF83820ADF828200D9A0992099A4A
:103300000A9BEE46CEF800C0FDF7A2FC10902BE021
:10331000119890F90A1090F90B200DF11E0002F09F
:10332000AFFB119890F90C1090F90D2006A806F04B
:103330003BFA1198D0F804C0BDF82200ADF8140093
:10334000DDF81E00049004980599BDF81C20ADF826
:103350000C20069A0292029A039BEE46CEF800C019
:10336000FDF776FC1090FFE7109848B1FFE7119841
:1033700010998861119800891099A1F84800FFE719
:10338000109812B080BD000084B00390029100201C
:1033900000900190FFE70198072823D8FFE70398E2
:1033A000019901EB410100EB8100406A08B9FFE798
:1033B00018E00298009908440399019A02EB42022E
:1033C00001EB820108620398019901EB410100EBD6
:1033D0008100416A009808440090FFE7019801309D
:1033E0000190D8E7002004B07047000080B582B09B
:1033F000019040F24400C2F2000000788DF8030012
:103400009DF903000B280AD8FFE79DF903104BF63E
:10341000A860C0F60000405C0199087003E0FF203E
:103420008DF80300FFE79DF9030006F003F89DF90E
:10343000030002B080BD000080B586B0059000207A
:103440000490059841F25971CDF2B711A0FB01101B
:10345000400B0390059948F21F50C5F2EB10A1FBF9
:103460000013590945F62942C0F28F22A1FB02122E
:1034700064214A43C2EB53120292059AA2FB003028
:10348000400900FB11200190059840F293118842F9
:103490000CD0FFE70399029A019B4BF6E060C0F65F
:1034A000000006F095FA0120049009E00399029AC1
:1034B000019B4CF23910C0F6000006F089FAFFE7D4
:1034C000049806B080BD000080B594B012901191B0
:1034D00010920F9300200E9011980D9001200790EC
:1034E0000F9818B9FFE707A80F90FFE70D98006A3B
:1034F0000C900D98406A0B90FFE70D98002800F0A3
:10350000BD81FFE70D98006A0C900C98006868BBBD
:10351000FFE70C98006940BBFFE71098FFF778FDC4
:1035200009900999087A013008720C98C06806F071
:1035300029FA042105F076FC0E900E980999496845
:10354000884203D9FFE70E98069003E00998406887
:103550000690FFE706980999486009980C99086158
:103560000C98016901204872FFE70CE0FFE70C9816
:1035700040B1FFE70C990868006908610C98806801
:103580000C90F4E7FFE70D98006A0C900C98D8B106
:10359000FFE70C988068B8B1FFE7FFE70C9890B19F
:1035A000FFE70C98006930B1FFE70C980069407A9A
:1035B000012804D0FFE76FF00700139061E10C9839
:1035C00080680C90EAE7FFE70D98816888471298B9
:1035D0000D9902F08BFA0D98006978B3FFE7109807
:1035E000FFF716FD0D99096908600D9800690168DB
:1035F000087A013008720D9800690168012048724C
:103600000D9800694068042105F00CFC0E900E989E
:103610000D99096909684968884203D9FFE70E983E
:10362000059005E00D980069006840680590FFE787
:1036300005980D99096909684860FFE70D980F9B87
:1036400019684A1C1A6005F087FD0D98406A18B980
:10365000FFE70020139014E10D98406A806800286D
:1036600054D1FFE70D98406A406800284ED1FFE72B
:103670000D98006A007E28B1FFE70D98406A007E31
:1036800060B9FFE70D99086A496A006908611098F6
:1036900005F084FE0D9805F005FF36E01098FFF761
:1036A000B7FC0890089820B9FFE76FF00600139068
:1036B000E7E0089901200872089948720D98406A5D
:1036C000C06806F05FF9042105F0ACFB0E900E987F
:1036D00008994968884203D9FFE70E98049003E0EF
:1036E000089840680490FFE7049808994860089893
:1036F0000D99496A0861109805F050FE0D9805F083
:10370000E1FE0D9805F0CEFEFFE7A9E00D98006AF6
:10371000007E28B1FFE70D98406A007EF8B9FFE708
:103720000D99086A496A006908610D98406A05F0B8
:103730009BFB02460D98406A0169087A10440872A2
:103740000D98406A016901204872109805F026FE24
:103750000D9805F0B7FE0D9805F0A4FE53E00D9806
:10376000406A0B90FFE70B990020039039B1FFE707
:103770000B980068002818BF01200390FFE703980A
:10378000C007B0B3FFE71098FFF742FC0B99086140
:103790000B98006920B9FFE76FF00600139070E006
:1037A0000B98C06806F0EEF8042105F03BFB0E9084
:1037B0000E980B9909694968884203D9FFE70E986A
:1037C000029004E00B98006940680290FFE70298BD
:1037D0000B99096948600B9805F046FB0B9909693C
:1037E00008720B980169012048720B9880680B9051
:1037F000B9E7109805F0D2FD0D9805F063FE0D981D
:1038000005F050FEFFE70D98406A0B90FFE70B981C
:1038100018B3FFE70B980A90FFE70A990020019080
:1038200039B1FFE70A980068002818BF012001900D
:10383000FFE70198C00760B1FFE712980A9909688D
:103840004969109A0F9BFFF73FFE0A9840680A905B
:10385000E3E70B9880680B90D9E70020139010E005
:103860000D98406A006818B9FFE70020139008E03F
:103870000D98406A006840690D903EE60020139064
:10388000FFE7139814B080BD80B584B0039003980F
:1038900002900398016A0868C068C8600398006ACB
:1038A000C068017D0298C26C002005F05FFA0399A0
:1038B000496AC8600398016A406AC068C96805F02F
:1038C0007FFF0399086A496AC06880680068029AA5
:1038D000136D926D9B681B6818441268801AC96842
:1038E000896808600398406978B1FFE703994869DF
:1038F000496A8068C96889680968FFF74DFB0399C0
:10390000496AC96889680860FFE70398006AC06867
:1039100040680088DDF808C0BCF83010DCF84820AA
:10392000BCF83630BCF842C0EE46CEF800C000F01D
:103930004FFA0399496AC968496808800398006A80
:10394000C06840684088DDF808C0BCF83210DCF878
:103950004820BCF83830BCF844C0EE46CEF800C071
:1039600000F036FA0399496AC968496848800298A4
:10397000C06C0399496AC968496888800298806C5C
:10398000012819D1FFE70299B1F844004A8E013AA3
:10399000504300EBD0704008C8870299B1F842004C
:1039A0000A8E013A504300EBD07040088887029994
:1039B0000020A1F84000FFE70299488E098E41439C
:1039C0000398026A406AD268526892885143019112
:1039D000C06805F0D7FF0146019848430399886203
:1039E000002004B080BD000080B582B00190019835
:1039F000806958B9FFE7019800900098006D00F0C9
:103A000047FA0098406D00F043FAFFE7002002B04B
:103A100080BD00002DE9F04FADB02C902C982B907C
:103A20002C98006AC068407D10286DD1FFE72C9962
:103A3000086A496AC06802682992406842882892E8
:103A4000028883882B981F90C968D1F800C0CDF8F0
:103A50008CC0496820918C88458E068EC78FB0F83F
:103A60003C80B0F83890B0F836A0B0F844B0B0F868
:103A700042E0016DD0F854C0806D25901F98C06D54
:103A800026902098DCF800C0CDF89CC0D1F800C08A
:103A900009692491418822910088219068462A90E2
:103AA00000218164416421982A99086422992A9806
:103AB000C16323982A99886324992A984163259899
:103AC0002A99086326992A98C16227982A998862B8
:103AD00028992A98C0F824E02998DDF8A8E0CEF8C3
:103AE00020B0CEF81CA0CEF81890CEF81480CEF8F6
:103AF0001070CEF80C60CEF80850CEF80440CEF826
:103B000000C002F03BFA6CE02C99086A496AC06870
:103B100002681D92406842881C92028883882B9814
:103B20001390C968D1F800C0CDF85CC04968149101
:103B30008C88458E068EC78FB0F83C80B0F83890E0
:103B4000B0F836A0B0F844B0B0F842E0016DD0F85B
:103B500054C0806D19901398C06D1A901498DCF8B9
:103B600000C0CDF86CC0D1F800C009691891418837
:103B700016910088159068461E900021816441646A
:103B800015981E99086416991E98C16317981E9976
:103B9000886318991E98416319981E9908631A99A9
:103BA0001E98C1621B981E9988621C991E98C0F8C5
:103BB00024E01D98DDF878E0CEF820B0CEF81CA007
:103BC000CEF81890CEF81480CEF81070CEF80C60B5
:103BD000CEF80850CEF80440CEF800C002F086FBC4
:103BE000FFE700202DB0BDE8F08F000080B598B051
:103BF0001690A4201190119805F09CF91590159835
:103C000018B9FFE700201790DEE015986030139098
:103C100013981C30129012981C301490159904209F
:103C2000C8611399012008761299087614990872D0
:103C30001598139901F0FEFE1599086215981299CE
:103C400001F0F8FE15994862159943F61520C0F663
:103C500000004860159943F68900C0F600008860AE
:103C6000159943F6E910C0F60000C860169815993A
:103C7000886116988068007D032836D1FFE7159883
:103C80000490169890F91C200DF13E000121069138
:103C900001F0F6FE049A0699BDF842009086DDF820
:103CA0003E00106315980590169890F91E200EA8F6
:103CB00005F07AFD059A0699BDF83C0050870E98EC
:103CC000C2F8360015980790169890F922200DF149
:103CD000320000F045FA0799BDF83600A1F8460019
:103CE000DDF83200C1F8420035E0159801901698D1
:103CF00090F91C1090F91D200BA801F0C1FE01994C
:103D0000BDF8300088860B980863159802901698C5
:103D100090F91E1090F91F200DF1260005F044FDCA
:103D20000299BDF82A004887DDF82600C1F8360060
:103D300015980390169890F9221090F9232008A85E
:103D400000F00EFA0399BDF82400A1F84600089887
:103D5000C1F84200FFE7169880691599C864169863
:103D6000406A1599886416988068159908651698B0
:103D7000C068159948651698006915998865169860
:103D800040691599C8651598806C012819D1FFE71D
:103D90001599B1F842000A8E013A504300EBD070F9
:103DA000400888871599B1F844004A8E013A50437B
:103DB00000EBD0704008C88715990020A1F840009A
:103DC000FFE715981790FFE7179818B080BD00001F
:103DD00087B0DDF81CC0059004910392029305980A
:103DE00018B9FFE7002006901AE0049801380799F7
:103DF0004843013001900398012803D1FFE705985B
:103E0000009005E005980199401A01300090FFE705
:103E10000098029908440138B0FBF1F00690FFE7E2
:103E2000069807B07047000080B582B001900198F5
:103E3000016A0868C068C8600198006AC068017DAE
:103E4000009105F005FD00990246002004F08EFF68
:103E50000199496AC8600198016A406AC068C968E6
:103E600005F0AEFC0198406978B1FFE70199486917
:103E7000496A8068C96889680968FFF78DF80199FF
:103E8000496AC96889680860FFE7002002B080BD00
:103E900080B582B00190019820B1FFE7019804F04D
:103EA000DFFFFFE702B080BD80B58AB009900998B6
:103EB00008900998016A0868C068C8600998006A93
:103EC000C068007D032823D1FFE70121059100226E
:103ED000104604F04BFF01460598099A526AD160DA
:103EE000ADF81C000898006BADF81E000998406AF8
:103EF000C06808994A6B9168D268EC460823CCF8F0
:103F000004300223CCF8003007AB05F0DDFC25E0DF
:103F10000998006AC06805F09BFC02460020012158
:103F2000049104F023FF049B0999496AC86008982A
:103F3000006BADF81A000998406AC06808994A6B8E
:103F40009168D268EC464FF0080ECCF804E0CCF84B
:103F500000300DF11A0305F0B7FCFFE70999086A74
:103F6000496AC06880680068089A536BD26B9B6886
:103F70001B6818441268801AC96889680860099823
:103F8000406978B1FFE709994869496A8068C9685A
:103F900089680968FFF700F80999496AC96889685A
:103FA0000860FFE70998006AC06805F0EBFC400074
:103FB0000999096948600998006AC06805F0E2FC3F
:103FC00003900998406AC06805F0DCFC014603983C
:103FD00048430999886200200AB080BD80B582B04C
:103FE00001900198806958B9FFE701980090009806
:103FF000406BFFF74DFF0098806BFFF749FFFFE72D
:10400000002002B080BD0000F0B58DB00C90002003
:104010000B900C980A900A98006C006809900A9816
:10402000C06B006808900C98006AC068016807912E
:104030000A99496B0968069105F0A4FC06990246A5
:1040400007980C9BD3F810E05B6AD3F80CC0DCF83F
:104050000060DCF804309CF814C003EB4C0333F828
:10406000023CBDF824C0BDF820400A9DAD6B2D6810
:10407000DEF800E0DEF80070EE46CEF81070CEF804
:104080000C60CEF80850CEF80440CEF800C092B2D2
:1040900002F0CCFA0B980DB0F0BD000080B588B0EE
:1040A000069088200190019804F044FF059005983F
:1040B00018B9FFE7002007904FE0059844300390BF
:1040C00003981C30029002981C3004900599082037
:1040D000C86103990120087602990876049908724C
:1040E0000598039901F0A6FC0599086205980299C4
:1040F00001F0A0FC059948620498059908610599AA
:1041000044F20900C0F600004860059943F6A96032
:10411000C0F600008860059943F6DD70C0F6000027
:10412000C8600698806805F093FB059908630698B7
:10413000C068059988630698806805994863069861
:1041400000690599C863069840690599086406984E
:104150000599886105980790FFE7079808B080BD2A
:1041600080B582B0019100920199009A012305F077
:10417000BBFA02B080BD000080B582B08DF80700A8
:104180009DF8070068B1FFE720208DF80000282087
:104190008DF8010030208DF8020038208DF80300E2
:1041A00003E04FF0A3300090FFE740F69E2004218B
:1041B0006A4604F03FFD03F00BFF02B080BD000033
:1041C00080B586B0ADF8160002208DF80C00CA202C
:1041D0008DF80D00E3208DF80E0009208DF80F00FA
:1041E0006820042103AA04F025FDA3208DF80C000B
:1041F000BDF81600400600280AD5FFE7C0208DF85C
:104200000D00C8208DF80E00C2208DF80F0007E0C9
:10421000A3208DF80D008DF80E008DF80F00FFE73C
:10422000BDF8160010F4C07F0AD0FFE7C4208DF857
:104230001000CC208DF81100C6208DF8120007E088
:10424000A3208DF810008DF811008DF81200FFE703
:10425000A3208DF813008DF814008DF8150040F69A
:10426000A7200A2103AA04F0E5FCBDF81600800788
:1042700020B1FFE720208DF80C0003E0D8208DF856
:104280000C00FFE740F6B620012103AA04F0D2FC9F
:10429000BDF816008006002804D5FFE7012000F0D5
:1042A000E5F803E0002000F0E1F8FFE7BDF81600B4
:1042B00010F4C07F27D0FFE7BDF81600C005002826
:1042C0000DD5FFE7B2208DF80C008B208DF80D0086
:1042D000B6208DF80E009B208DF80F000CE0B0206A
:1042E0008DF80C0080208DF80D00B4208DF80E00A4
:1042F00090208DF80F00FFE740F6A220042103AACA
:1043000004F098FCFFE7BDF81600C00750B3FFE7C4
:10431000F8208DF80C004FF40B600121029103AAE4
:1043200004F088FC07200190FA2100F049FC019874
:1043300000F0EAFB029800F01DFC642000F03EFD56
:104340004FF4FA7000F05AFD4EF20930C0F2CA2064
:10435000C82100F071FB282000F09AFB0A2000F031
:10436000B5FB09E0D8208DF80C004FF40B6001215B
:1043700003AA04F05FFCFFE7BDF8160080070028E1
:1043800004D5FFE7D9208DF80C0003E0D8208DF884
:104390000C00FFE740F23D70012103AA04F04AFC43
:1043A000BDF816004007002804D5FFE7012000F003
:1043B00093F803E0002000F08FF8FFE7BDF8160047
:1043C000C006002804D5FFE70120FFF7D5FE03E073
:1043D0000020FFF7D1FEFFE7BDF8160040F008000F
:1043E00040F64C71C2F200010091488103F0F0FDEB
:1043F000009900208873BDF816004006002808D5F3
:10440000FFE740F64C71C2F20001887B06308873EA
:10441000FFE7BDF8160010F4C07F08D0FFE740F6B4
:104420004C71C2F20001887B06308873FFE7BDF84B
:10443000160010F0140F08D0FFE740F64C71C2F2DE
:104440000001887B10308873FFE7BDF816008007F5
:1044500040B1FFE740F64C71C2F20001887B0430A6
:104460008873FFE7002006B080BD000080B588B0EB
:104470008DF81B009DF81B00A8B1FFE75D208DF8AB
:10448000180049F6B400C3F20D5005904AF6B82062
:10449000C8F6B35004904FF49760092104AA04F0C1
:1044A000C9FB079014E0C7208DF80C0048F6B00057
:1044B000CCF2C35002904AF6B820CAF6AA20019066
:1044C0004FF49760092101AA04F0B4FB0790FFE7BD
:1044D000079808B080BD000080B582B08DF8070055
:1044E0009DF8070068B1FFE7C0208DF80000C220EA
:1044F0008DF80100C4208DF80200C6208DF803005D
:1045000003E04FF08B300090FFE740F69820042145
:104510006A4604F08FFB03F05BFD02B080BD000033
:1045200080B54BF29821C0F6000140F6F6304FF40A
:104530008062C82303F0BEFB80BD000080B58CB054
:104540000B900DF1060003F02BFABDF80600C00336
:104550000021039102900B9940F64C70C2F20000CA
:10456000028902F0030251F82210089100894007E5
:10457000002804D5FFE7089840420890FFE70B9910
:1045800040F64C70C2F2000003890C2202EA53028A
:104590008958099100898006002804D5FFE7099809
:1045A00040420990FFE70B9940F64C70C2F20000C0
:1045B0000289C2F3811251F822100A910089C005C4
:1045C000002804D5FFE70A9840420A90FFE7089BBD
:1045D000D917029ADDF80CC0A3FB020E03FB0CE313
:1045E00001FB0231800F40EA81000890099BD91736
:1045F000029ADDF80CC0A3FB020E03FB0CE301FBE7
:104600000231800F40EA810009900A9BD917029A73
:10461000DDF80CC0A3FB020E03FB0CE301FB02312F
:10462000800F40EA81000A909DF823008DF8140065
:10463000BDF822008DF815000898000A8DF81600C4
:1046400008988DF817009DF827008DF81800BDF820
:1046500026008DF819000998000A8DF81A000998AB
:104660008DF81B009DF82B008DF81C00BDF82A006A
:104670008DF81D000A98000A8DF81E000A988DF822
:104680001F004FF425700C2105AA04F0D3FA0CB0DA
:1046900080BD000080B588B0ADF81A004AF6BB7046
:1046A000CDF6DF7005904FF2AA10CDF6DF700490C2
:1046B0004FF2FE20CCF2AB400390BDF81A00C9289F
:1046C00004DBFFE74FF0FF30079032E0BDF81A102F
:1046D000C820B0FBF1F00138ADF80A009DF80B00DE
:1046E0008DF80200BDF80A008DF8030040F2162094
:1046F00002210DF1020204F09DFA20B1FFE74FF014
:10470000FF30079015E040F6C1200C2103AA04F009
:1047100091FA20B1FFE74FF0FF30079009E0BDF8B4
:104720001A0040F64C71C2F2000188810020079007
:10473000FFE7079808B080BD80B586B00490049963
:1047400040F64C70C2F20000028902F0030251F8F8
:104750002210019100894007002804D5FFE7019845
:1047600040420190FFE7049940F64C70C2F200000D
:1047700003890C2202EA53028958029100898006BB
:10478000002804D5FFE7029840420290FFE7049911
:1047900040F64C70C2F200000289C2F3811251F857
:1047A000221003910089C005002804D5FFE7039873
:1047B00040420390FFE701984EF20931C0F2CA214E
:1047C00080FB0102800F40EA82000190029880FB8A
:1047D0000102800F40EA82000290039880FB0101F1
:1047E000800F40EA810003909DF807008DF80000DB
:1047F000BDF806008DF801000198000A8DF802004E
:1048000001988DF803004FF4747004216A4604F097
:1048100011FA20B1FFE74FF0FF30059031E09DF82D
:104820000B008DF80000BDF80A008DF80100029819
:10483000000A8DF8020002988DF803004FF475709D
:1048400004216A4604F0F6F920B1FFE74FF0FF308B
:10485000059016E09DF80F008DF80000BDF80E00E1
:104860008DF801000398000A8DF8020003988DF876
:1048700003004FF4767004216A4604F0DBF90590DA
:10488000FFE7059806B080BD80B588B0ADF81A0086
:104890006C208DF810004CF64C50ADF80E002C201A
:1048A0008DF80C004CF60C10ADF80A0076208DF84F
:1048B000080045F23660ADF8060066208DF8040069
:1048C00044F22660ADF80200BDF81A0000F00301C2
:1048D0000DF10E00415C8DF81610BDF81A10C1F3F1
:1048E000C101415C8DF81710BDF81A10C1F3811198
:1048F000405C8DF81800BDF81A0000F003010DF1BE
:104900000A00415C8DF81210BDF81A10C1F3C10104
:10491000415C8DF81310BDF81A10C1F38111405C91
:104920008DF8140040F2264003210DF1160204F028
:1049300081F920B1FFE74FF0FF30079079E040F2B6
:104940002A4003210DF1120204F074F920B1FFE7AF
:104950004FF0FF3007906CE09DF808008DF81800CC
:10496000BDF80600ADF816009DF804008DF814009F
:10497000BDF80200ADF81200BDF81A00400700288B
:104980000DD5FFE79DF8160040F001008DF81600E8
:104990009DF8120040F001008DF81200FFE7BDF80D
:1049A0001A00800600280DD5FFE79DF8170040F09B
:1049B00001008DF817009DF8130040F001008DF8FC
:1049C0001300FFE7BDF81A00C00500280DD5FFE76A
:1049D0009DF8180040F001008DF818009DF81400B3
:1049E00040F001008DF81400FFE74FF488600321C8
:1049F0000DF1160204F01EF920B1FFE74FF0FF3071
:104A0000079016E040F2314003210DF1120204F04C
:104A100011F920B1FFE74FF0FF30079009E0BDF832
:104A20001A0040F64C71C2F2000108810020079084
:104A3000FFE7079808B080BD80B584B00390ADF85B
:104A40000A10039844F6D351C1F2620180FB0101C0
:104A5000881100EBD170BDF80A10484300909DF812
:104A600003008DF80600BDF802008DF807000098DD
:104A7000000A8DF8080000988DF809004FF4AE7018
:104A800004210DF1060204F0D5F804B080BD000049
:104A900080B582B0ADF80600BDF8060043F23431AF
:104AA000C3F23331A0FB0110ADF806009DF80700FA
:104AB0008DF80400BDF806008DF805004FF4AD70C8
:104AC000022101AA04F0B6F802B080BD80B582B020
:104AD000ADF80600BDF8060043F23431C3F23331BD
:104AE000A0FB0110ADF806009DF807008DF804004A
:104AF000BDF806008DF805004FF4AC70022101AA44
:104B000004F098F802B080BD80B582B08DF807003F
:104B100000208DF806009DF80700C00738B1FFE7B8
:104B20009DF8060040F030008DF80600FFE79DF884
:104B300007008007002807D5FFE79DF8060040F032
:104B40000C008DF80600FFE79DF8070040070028DD
:104B500007D5FFE79DF8060040F003008DF806003A
:104B6000FFE74FF4A47001210DF1060204F062F892
:104B700002B080BD80B582B08DF807009DF80700B7
:104B8000002804DCFFE701208DF8070009E09DF80C
:104B90000700052804DBFFE704208DF80700FFE786
:104BA000FFE79DF8070001388DF8060040F24F102E
:104BB00001210DF1060204F03DF802B080BD0000B5
:104BC00080B588B08DF81B00ADF818109DF81B005B
:104BD000400730B1FFE7BDF81800B0F5C86F04DD3D
:104BE000FFE74FF0FF300790E5E0BDF81800FBF756
:104BF00023FD0021C4F24831FBF7B1FB03900DF116
:104C0000130002F097FE9DF813000238014601914F
:104C10000E285AD80199DFE801F008581C58585856
:104C20003058585858585858440003984FF08D4100
:104C3000FBF763FBFBF716FDADF80A0003980021B4
:104C4000C4F24061FBF759FBFBF70CFDADF808001F
:104C50003FE003984FF08C41FBF74FFBFBF702FD61
:104C6000ADF80A0003980021C4F2C051FBF745FBE0
:104C7000FBF7F8FCADF808002BE003984FF08B41F0
:104C8000FBF73BFBFBF7EEFCADF80A0003980021B5
:104C9000C4F24051FBF731FBFBF7E4FCADF8080030
:104CA00017E003984FF08A41FBF727FBFBF7DAFC8C
:104CB000ADF80A0003980021C4F2C041FBF71DFBC8
:104CC000FBF7D0FCADF8080003E04FF0FF30079091
:104CD00071E09DF80B008DF81400BDF80A008DF806
:104CE00015009DF809008DF81600BDF808008DF834
:104CF00017009DF81B00C007D0B1FFE74FF4EA7022
:104D0000022105AA03F096FF20B1FFE74FF0FF3024
:104D1000079050E005A8821C4FF49270022103F026
:104D200089FF20B1FFE74FF0FF30079043E0FFE736
:104D30009DF81B00800700281AD5FFE74FF4EC70A0
:104D4000022105AA03F076FF20B1FFE74FF0FF3004
:104D5000079030E005A8821C4FF49470022103F004
:104D600069FF20B1FFE74FF0FF30079023E0FFE736
:104D70009DF81B00400700281AD5FFE74FF4EE709E
:104D8000022105AA03F056FF20B1FFE74FF0FF30E4
:104D9000079010E005A8821C4FF49670022103F0E2
:104DA00049FF20B1FFE74FF0FF30079003E0FFE736
:104DB00000200790FFE7079808B080BD80B582B05B
:104DC000ADF80600BDF8060043F23431C3F23331CA
:104DD000A0FB0110ADF804009DF805008DF802005D
:104DE000BDF804008DF803004FF4EF7002210DF1BF
:104DF000020203F01FFF02B080BD000080B582B048
:104E0000ADF80600BDF8060043F23431C3F2333189
:104E1000A0FB0110ADF804009DF805008DF802001C
:104E2000BDF804008DF803004FF4ED7002210DF180
:104E3000020203F0FFFE02B080BD000082B00090CD
:104E4000009818B9FFE7002001900EE0FFE70098F6
:104E5000406A006830B1FFE70098406A0068406926
:104E60000090F4E700980190FFE7019802B07047C6
:104E700080B586B005900598016A0868C068C8606A
:104E80000598006AC068017D029104F0E1FC029976
:104E900002460020039003F069FF0599496AC86043
:104EA0000598006AC06804F06DFDADF81200059821
:104EB000016A406AC068CA689168D268EC460823F3
:104EC000CCF804300123CCF800300DF1120304F0CB
:104ED000FBFC039806B080BD81B00090002001B0BB
:104EE0007047000080B582B00190FCF7D1F80090C7
:104EF000009820B1FFE7019800998861FFE70098CA
:104F000002B080BD82B001900091FFE743F600003F
:104F1000C4F2010000880006002801D4FFE7F5E78D
:104F2000019843F60401C4F201010880019802B01F
:104F30007047000080B586B0049040F24800C2F28D
:104F40000000406800780D21042203ABFCF71CFB35
:104F500018B1FFE7072005906CE09DF80C009DF864
:104F60000F1000F0E000C00801F0300140EA11101D
:104F70008DF809009DF80D009DF80F1000F0E0007D
:104F8000C00801F00C0140EA91008DF80A009DF87C
:104F90000E109DF80F0001F0E00100F0030040EA60
:104FA000D1008DF80B0000208DF80800FFE79DF878
:104FB000080002283BDCFFE79DF808100DF109000E
:104FC000405C38B9FFE704999DF80820002041F8BB
:104FD000220026E004999DF8082041F27B40C3F6A8
:104FE000AE6041F82200FFE79DF808200DF10901AD
:104FF000885C01388854000690B1FFE7049801905E
:105000009DF80810009150F8210045F61D21C3F6C7
:105010008471FBF772F9009A019941F82200E3E7E5
:10502000FFE79DF8080001308DF80800BFE7002079
:105030000590FFE7059806B080BD000080B594B0EC
:10504000129011918DF8432001208DF83700002037
:105050008DF8380040F24800C2F200000168406854
:105060000078497D02220DF13703FCF7D9FA20B10F
:10507000FFE74FF0FF3013907BE2C820FBF7D0FE34
:1050800000208DF8370040F24800C2F200000168AD
:1050900040680078497C01220DF13703FCF7C0FA23
:1050A00020B1FFE74FF0FF30139062E240F248007A
:1050B000C2F20000016840680078497901220DF1D0
:1050C0003703FCF7ADFA20B1FFE74FF0FF30139044
:1050D0004FE240F24800C2F20000016840680078E8
:1050E000497D01220DF13703FCF79AFA20B1FFE761
:1050F0004FF0FF3013903CE240F24800C2F2000053
:10510000016840680078897E01220DF13703FCF7C1
:1051100087FA20B1FFE74FF0FF30139029E240F209
:105120004800C2F200000168406800780979012255
:105130000DF13703FCF774FA20B1FFE74FF0FF30B1
:10514000139016E20C208DF8370040F24800C2F2AE
:105150000000016840680078097901220DF13703E9
:10516000FCF75EFA20B1FFE74FF0FF30139000E24A
:105170000F20FBF755FE40F24800C2F20000816AA2
:10518000497A8DF8371001684068007889780122E3
:105190000DF13703FCF744FA20B1FFE74FF0FF3081
:1051A0001390E6E140F24800C2F20000816A097AF9
:1051B0008DF83710016840680078497801220DF1B8
:1051C0003703FCF72DFA20B1FFE74FF0FF301390C3
:1051D000CFE19DF8430058B1FFE740F24800C2F22A
:1051E0000000806A807A40F0E0008DF8370008E027
:1051F00040F24800C2F20000806A807A8DF83700E1
:10520000FFE740F24800C2F2000001684068007801
:10521000897901220DF13703FCF702FA20B1FFE78B
:105220004FF0FF301390A4E19DF8430058B1FFE721
:1052300040F24800C2F20000806AC07A40F0E0000C
:105240008DF8370003E018208DF83700FFE740F2B3
:105250004800C2F20000016840680078C979012264
:105260000DF13703FCF7DCF920B1FFE74FF0FF3019
:1052700013907EE19DF8430020B1FFE7C820FBF7C3
:10528000CFFDFFE740208DF8370040F24800C2F222
:105290000000016840680078097901220DF13703A8
:1052A000FCF7BEF920B1FFE74FF0FF30139060E14B
:1052B00078208DF8370040F24800C2F20000016803
:1052C00040680078497901220DF13703FCF7A8F90D
:1052D00020B1FFE74FF0FF3013904AE13220FBF797
:1052E0009FFD00208DF8370040F24800C2F2000018
:1052F000016840680078497901220DF13703FCF715
:105300008FF920B1FFE74FF0FF30139031E140F209
:105310004800C2F20000016840680078097B022260
:105320000DF13703FCF730F920B1FFE74FF0FF3004
:1053300013901EE19DF837109DF8380040EA0120D7
:10534000ADF83200BDF8320045F25651C1F2555168
:10535000A0FB01108DF83600129900208860129988
:1053600048601299086011998860119948601199F4
:1053700008608DF83500FFE79DF835009DF8361080
:1053800088426EDAFFE740F24800C2F2000001688E
:1053900040680078497B0C220DF13703FCF7F4F8E4
:1053A00020B1FFE74FF0FF301390E2E09DF8371097
:1053B0009DF8380040EA0120ADF82C009DF8391026
:1053C0009DF83A0040EA0120ADF82E009DF83B1010
:1053D0009DF83C0040EA0120ADF83000BDF92C20DA
:1053E0001199086810440860BDF92E201199486889
:1053F00010444860BDF930201199886810448860D5
:105400009DF83D109DF83E0040EA0120ADF82600D1
:105410009DF83F109DF8400040EA0120ADF82800BB
:105420009DF841109DF8420040EA0120ADF82A00A5
:10543000BDF926201299086810440860BDF928209B
:105440001299486810444860BDF92A20129988686A
:1054500010448860FFE79DF8350001308DF8350075
:105460008AE7129801900068C117090441EA1041C7
:1054700000048322039200230793FAF784FE079B1C
:105480009DF83620FAF77FFE0199039A079B086082
:10549000129802904068C117090441EA10410004C3
:1054A000FAF771FE079B9DF83620FAF76CFE029919
:1054B000039A079B4860129804908068C1170904FA
:1054C00041EA10410004FAF75EFE079B9DF8362082
:1054D000FAF759FE0499079B8860119805900268B5
:1054E000D017000440EA1241100C400562F354103A
:1054F000C9129DF83620FAF746FE0599079B086009
:10550000119806904268D017000440EA1241100C2E
:10551000400562F35410C9129DF83620FAF733FEA5
:105520000699079B4860119808908268D01700047C
:1055300040EA1241100C400562F35410C9129DF864
:105540003620FAF720FE08998860119880680128B3
:1055500006DBFFE711998868A0F58030886005E0D8
:105560001199886800F580308860FFE7002013906B
:10557000FFE7139814B080BD80B58EB00C900B91EE
:105580000020099040F24800C2F200004068007814
:105590000D2103220DF12103FBF7F6FF18B1FFE700
:1055A00007200D909CE09DF8210000F01F008DF871
:1055B00021009DF8220000F01F008DF822009DF8C8
:1055C000230000F01F008DF8230000200A90FFE761
:1055D0000A98022800F38180FFE70C980A9A50F895
:1055E00022000B9951F82210401A039000280490D1
:1055F00002D50398404204900498FBF714F84FF04A
:105600008F41FAF7ACFE06900A990DF12100405C3B
:10561000002840D0FFE70020C4F2C8100790FFE741
:105620000A9A0DF12101885C01388854000648B1BE
:10563000FFE707984EF25431C3F68571FAF75DFE25
:105640000790EDE706980799FAF789FE0021CBF657
:105650008071FAF7FAFD05900598FBF73BF8019089
:1056600021F0004002904EF2B040C0F60000806988
:10567000FBF730F8024601980B460299FAF7B8FF9B
:1056800040B9FFE70A99012000FA01F1099808439F
:105690000990FFE71CE006984EF2B041C0F6000109
:1056A0000969FAF789FF50B9FFE706984EF2B04151
:1056B000C0F600014969FAF771FF40B9FFE70A999E
:1056C000012000FA01F1099808430990FFE7FFE77C
:1056D000FFE70A9801300A907AE709980D90FFE7F2
:1056E0000D980EB080BD000080B582B08DF8070027
:1056F0000DF10600FDF77AFE0130A8B3FFE79DF833
:1057000006104CF2CF60C0F6000004F061F99DF87D
:10571000070050B9FFE79DF8061040F6C860C2F2D6
:105720000000FCF703F9009009E09DF8061040F630
:10573000C860C2F20000FCF7BBF80090FFE70099D8
:1057400040F64870C2F200000180018840F6C8604F
:10575000C2F20000FDF7EEFA40F6B460C2F20000BB
:1057600001680320884707E040F6B460C2F20000F9
:10577000016802208847FFE702B080BD80B584B091
:1057800003900398006AC068017D019104F060F8FD
:10579000019902460020029003F0E8FA0399496A51
:1057A000C8600398016A406AC068C96804F008F8D4
:1057B000029804B080BD000080B584B003900398C7
:1057C00002900398006AC068016801910299C96B50
:1057D000009104F0D7F8009902460198FAF704FD09
:1057E000002004B080BD000080B592B010907820F9
:1057F00003F0A0FB0F900F9818B9FFE7002011905D
:10580000A5E00F9840300E900E981C300D900F9927
:105810000220C8610F9945F2B970C0F600004860D7
:105820000F9945F27D70C0F6000088600E99012046
:1058300008760D99002008760F980E9900F0FAF876
:105840000F9908620F980D9900F0F4F80F994862CB
:1058500010984068007D012814D1FFE70F9806904A
:1058600010984068406803880DF12E00012211460F
:1058700003F03AFF0699BDF832008886DDF82E0065
:1058800008632CE010984068007D022812D1FFE7E1
:105890000F980590109840684068028843880AA8CD
:1058A000012103F021FF0599BDF82C0088860A9894
:1058B000086313E00F9804901098406840680188CE
:1058C000428883880DF1220003F00EFF0499BDF891
:1058D00026008886DDF822000863FFE7FFE71098BE
:1058E000406800680F99C863109840688068006835
:1058F0000F9988630F98008EADF81C000F98408EAA
:10590000ADF81E000F98808EADF82000109840680A
:1059100003F09EFF0246002003900321029103F052
:1059200025FA029B039A0F99096AC8600F99086AC1
:10593000896BC068EC464FF0080ECCF804E0CCF858
:10594000003007AB03F0F8FF0F981190FFE71198B4
:1059500012B080BD80B582B00190019800F01CF8B3
:10596000ADF802000198033000F016F80146BDF8CA
:10597000020040EAC100ADF802000198063000F0D4
:105980000BF80146BDF8020040EA8110ADF80200B4
:10599000BDF8020002B080BD82B00190019890F97C
:1059A0000000012804DBFFE70020ADF802003DE025
:1059B000019890F90000B0F1FF3F04DCFFE70420FC
:1059C000ADF8020031E0019890F90100012804DBF4
:1059D000FFE70120ADF8020026E0019890F90100F0
:1059E000B0F1FF3F04DCFFE70520ADF802001AE04C
:1059F000019890F90200012804DBFFE70220ADF8CE
:105A000002000FE0019890F90200B0F1FF3F04DCC2
:105A1000FFE70620ADF8020003E00720ADF8020022
:105A2000FFE7FFE7FFE7FFE7FFE7FFE7BDF802005B
:105A300002B0704782B001900091019800994861CE
:105A4000009802B07047000080B582B0019000203D
:105A50000090019888B1FFE7FFE7019860B1FFE788
:105A60000198C06803F08EFF01460098084400903A
:105A7000019880680190F0E7FFE7009802B080BDD0
:105A800080B582B0019100920199009A012303F040
:105A90002BFE02B080BD000080B584B00290029859
:105AA00050B9FFE74CF2B600C0F6000003F090FFDB
:105AB0004FF0FF30039015E00020009002984168FD
:105AC000884701900298406928B1FFE70298406931
:105AD00001688847FFE7009840420299C862019830
